{
  "contractName": "Tickets",
  "abi": [
    {
      "constant": true,
      "inputs": [
        {
          "name": "",
          "type": "uint256"
        }
      ],
      "name": "tickets",
      "outputs": [
        {
          "name": "price",
          "type": "uint256"
        },
        {
          "name": "owner",
          "type": "address"
        }
      ],
      "payable": false,
      "stateMutability": "view",
      "type": "function",
      "signature": "0x50b44712"
    },
    {
      "constant": true,
      "inputs": [],
      "name": "owner",
      "outputs": [
        {
          "name": "",
          "type": "address"
        }
      ],
      "payable": false,
      "stateMutability": "view",
      "type": "function",
      "signature": "0x8da5cb5b"
    },
    {
      "constant": true,
      "inputs": [],
      "name": "TOTAL_TICKETS",
      "outputs": [
        {
          "name": "",
          "type": "uint256"
        }
      ],
      "payable": false,
      "stateMutability": "view",
      "type": "function",
      "signature": "0xafbd1782"
    },
    {
      "inputs": [],
      "payable": false,
      "stateMutability": "nonpayable",
      "type": "constructor",
      "signature": "constructor"
    },
    {
      "constant": false,
      "inputs": [
        {
          "name": "_index",
          "type": "uint256"
        }
      ],
      "name": "buyTicket",
      "outputs": [],
      "payable": true,
      "stateMutability": "payable",
      "type": "function",
      "signature": "0x67dd74ca"
    }
  ],
  "bytecode": "0x6080604052336000806101000a81548173ffffffffffffffffffffffffffffffffffffffff021916908373ffffffffffffffffffffffffffffffffffffffff16021790555034801561005057600080fd5b5060008090505b600a8110156100e65767016345785d8a0000600182600a8110151561007857fe5b60020201600001819055506000600182600a8110151561009457fe5b6002020160010160006101000a81548173ffffffffffffffffffffffffffffffffffffffff021916908373ffffffffffffffffffffffffffffffffffffffff1602179055508080600101915050610057565b50610342806100f66000396000f3fe608060405260043610610062576000357c0100000000000000000000000000000000000000000000000000000000900463ffffffff16806350b447121461006757806367dd74ca146100e95780638da5cb5b14610117578063afbd17821461016e575b600080fd5b34801561007357600080fd5b506100a06004803603602081101561008a57600080fd5b8101908080359060200190929190505050610199565b604051808381526020018273ffffffffffffffffffffffffffffffffffffffff1673ffffffffffffffffffffffffffffffffffffffff1681526020019250505060405180910390f35b610115600480360360208110156100ff57600080fd5b81019080803590602001909291905050506101e2565b005b34801561012357600080fd5b5061012c6102ec565b604051808273ffffffffffffffffffffffffffffffffffffffff1673ffffffffffffffffffffffffffffffffffffffff16815260200191505060405180910390f35b34801561017a57600080fd5b50610183610311565b6040518082815260200191505060405180910390f35b600181600a811015156101a857fe5b600202016000915090508060000154908060010160009054906101000a900473ffffffffffffffffffffffffffffffffffffffff16905082565b600a811080156101f3575060008110155b15156101fe57600080fd5b600073ffffffffffffffffffffffffffffffffffffffff16600182600a8110151561022557fe5b6002020160010160009054906101000a900473ffffffffffffffffffffffffffffffffffffffff1673ffffffffffffffffffffffffffffffffffffffff1614151561026f57600080fd5b600181600a8110151561027e57fe5b6002020160000154341015151561029457600080fd5b33600182600a811015156102a457fe5b6002020160010160006101000a81548173ffffffffffffffffffffffffffffffffffffffff021916908373ffffffffffffffffffffffffffffffffffffffff16021790555050565b6000809054906101000a900473ffffffffffffffffffffffffffffffffffffffff1681565b600a8156fea165627a7a72305820fdd727aa75735a6b22023d29255eb02c21616649a0bb5427e9ebfaa553aa4f030029",
  "source": "pragma solidity >=0.4.22 <0.9.0;\r\n\r\n\r\ncontract Tickets {\r\n  address public owner = msg.sender;\r\n  uint public constant TOTAL_TICKETS = 10;\r\n  struct Ticket {\r\n    uint256 price;\r\n    address owner;\r\n  }\r\n\r\n  Ticket[TOTAL_TICKETS] public tickets;\r\n\r\n  constructor() public{\r\n    for (uint256 i = 0; i < TOTAL_TICKETS; i++) {\r\n      tickets[i].price = 1e17; // 0.1 ETH\r\n      tickets[i].owner = address(0x0);\r\n    }\r\n  }\r\n\r\n  function buyTicket(uint256 _index) external payable {\r\n    require(_index < TOTAL_TICKETS && _index >= 0);\r\n    require(tickets[_index].owner == address(0x0));\r\n    require(msg.value >= tickets[_index].price);\r\n    tickets[_index].owner = msg.sender;\r\n  }\r\n}",
  "sourcePath": "C:/blockchain/ticketsapp/contracts/Tickets.sol",
  "compiler": {
    "name": "solc",
    "version": "0.5.0+commit.1d4f565a.Emscripten.clang"
  },
  "schemaVersion": "3.0.1",
  "updatedAt": "2022-08-21T09:46:56.842Z",
  "devdoc": {
    "methods": {}
  },
  "userdoc": {
    "methods": {}
  }
}